:020000040800F2
:100000000000012061170008B1170008B1170008AF
:10001000B1170008B1170008B11700080000000070
:10002000000000000000000000000000B117000800
:10003000B117000800000000B1170008B117000850
:1000400000000000B1170008B1170008B117000840
:10005000B1170008B1170008B1170008B117000860
:10006000B1170008B1170008B11700080000000020
:100070000000000000000000000000000000000080
:100080000000000000000000B117000800000000A0
:10009000000000000000000000000000B117000890
:1000A000B1170008B1170008B1170008B117000810
:1000B000E1150008B117000800000000B1170008A2
:1000C000B1170008B1170008B1170008B1170008F0
:1000D000B117000800000000000000000000000050
:1000E000B1170008B1170008B117000800000000A0
:1000F0000000000000000000000000000000000000
:1001000000000000B117000800000000B11700084F
:1001100000000000000000000000000000000000DF
:1001200000000000000000000000000000000000CF
:1001300000000000000000000000000000000000BF
:10014000000000000000000000000000B1170008DF
:10015000000000000000000000000000000000009F
:10016000B1170008B11700080000000000000000EF
:10017000000000000000000000000000000000007F
:1001800000000000B117000800000000000000009F
:04019000B11700089B
:1001980010B5054C237833B9044B13B10448AFF3B9
:1001A80000800123237010BD4004002000000000DF
:1001B8001819000808B5034B1BB103490348AFF3EE
:1001C800008008BD00000000440400201819000841
:1001D80081F0004102E000BF83F0004330B54FEAF0
:1001E80041044FEA430594EA050F08BF90EA020F5D
:1001F8001FBF54EA000C55EA020C7FEA645C7FEAF0
:10020800655C00F0E2804FEA5454D4EB5555B8BF12
:100218006D420CDD2C4480EA020281EA030382EA83
:10022800000083EA010180EA020281EA0303362D15
:1002380088BF30BD11F0004F4FEA01314FF4801CE8
:100248004CEA113102D0404261EB410113F0004FFA
:100258004FEA03334CEA133302D0524263EB4303B1
:1002680094EA050F00F0A780A4F10104D5F1200E4F
:100278000DDB02FA0EFC22FA05F2801841F10001AA
:1002880003FA0EF2801843FA05F359410EE0A5F17E
:1002980020050EF1200E012A03FA0EFC28BF4CF0AF
:1002A800020C43FA05F3C01851EBE37101F0004565
:1002B80007D54FF0000EDCF1000C7EEB00006EEB72
:1002C8000101B1F5801F1BD3B1F5001F0CD34908FC
:1002D8005FEA30004FEA3C0C04F101044FEA445253
:1002E80012F5800F80F09A80BCF1004F08BF5FEADA
:1002F800500C50F1000041EB045141EA050130BDBA
:100308005FEA4C0C404141EB010111F4801FA4F15C
:100318000104E9D191F0000F04BF01460020B1FAB1
:1003280081F308BF2033A3F10B03B3F120020CDAE9
:100338000C3208DD02F1140CC2F10C0201FA0CF0C7
:1003480021FA02F10CE002F11402D8BFC2F1200C2C
:1003580001FA02F120FA0CFCDCBF41EA0C019040E2
:10036800E41AA2BF01EB0451294330BD6FEA04042B
:100378001F3C1CDA0C340EDC04F11404C4F1200216
:1003880020FA04F001FA02F340EA030021FA04F328
:1003980045EA030130BDC4F10C04C4F1200220FA7F
:1003A80002F001FA04F340EA0300294630BD21FABD
:1003B80004F0294630BD94F0000F83F4801306BF83
:1003C80081F480110134013D4EE77FEA645C18BF77
:1003D8007FEA655C29D094EA050F08BF90EA020F0E
:1003E80005D054EA000C04BF1946104630BD91EA06
:1003F800030F1EBF0021002030BD5FEA545C05D109
:100408004000494128BF41F0004130BD14F5800447
:100418003CBF01F5801130BD01F0004545F0FE41BB
:1004280041F470014FF0000030BD7FEA645C1ABFF0
:10043800194610467FEA655C1CBF0B46024650EA27
:10044800013406BF52EA033591EA030F41F4002153
:1004580030BD00BF90F0000F04BF0021704730B5D9
:100468004FF4806404F132044FF000054FF00001AE
:1004780050E700BF90F0000F04BF0021704730B56F
:100488004FF4806404F1320410F0004548BF404244
:100498004FF000013EE700BF42004FEAE2014FEA99
:1004A80031014FEA02701FBF12F07F4393F07F4F74
:1004B80081F06051704732F07F4208BF704793F077
:1004C8007F4F04BF41F40021704730B54FF460748A
:1004D80001F0004521F000411CE700BF50EA01028D
:1004E80008BF704730B54FF000050AE050EA010236
:1004F80008BF704730B511F0004502D5404261EBA6
:1005080041014FF4806404F132045FEA915C3FF4E6
:10051800D8AE4FF003025FEADC0C18BF03325FEA83
:10052800DC0C18BF033202EBDC02C2F1200300FA34
:1005380003FC20FA02F001FA03FE40EA0E0021FA59
:1005480002F11444BDE600BF70B54FF0FF0C4CF447
:10055800E06C1CEA11541DBF1CEA135594EA0C0FF9
:1005680095EA0C0F00F0DEF82C4481EA030621EA34
:100578004C5123EA4C5350EA013518BF52EA03356F
:1005880041F4801143F4801338D0A0FB02CE4FF021
:100598000005E1FB02E506F00042E0FB03E54FF051
:1005A8000006E1FB03569CF0000F18BF4EF0010E49
:1005B800A4F1FF04B6F5007F64F5407404D25FEA45
:1005C8004E0E6D4146EB060642EAC62141EA5551F8
:1005D8004FEAC52040EA5E504FEACE2EB4F1FD0C3A
:1005E80088BFBCF5E06F1ED8BEF1004F08BF5FEAB8
:1005F800500E50F1000041EB045170BD06F000466A
:1006080046EA010140EA020081EA0301B4EB5C0416
:10061800C2BFD4EB0C0541EA045170BD41F480110E
:100628004FF0000E013C00F3AB8014F1360FDEBF33
:10063800002001F0004170BDC4F10004203C35DA0F
:100648000C341BDC04F11404C4F1200500FA05F392
:1006580020FA04F001FA05F240EA020001F0004233
:1006680021F0004110EBD37021FA04F642EB0601A9
:100678005EEA430E08BF20EAD37070BDC4F10C04D3
:10068800C4F1200500FA04F320FA05F001FA04F297
:1006980040EA020001F0004110EBD37041F1000183
:1006A8005EEA430E08BF20EAD37070BDC4F120058E
:1006B80000FA05F24EEA020E20FA04F301FA05F2F6
:1006C80043EA020321FA04F001F0004121FA04F29E
:1006D80020EA020000EBD3705EEA430E08BF20EA6E
:1006E800D37070BD94F0000F0FD101F000464000A8
:1006F80041EB010111F4801F08BF013CF7D041EA2A
:10070800060195F0000F18BF704703F0004652002D
:1007180043EB030313F4801F08BF013DF7D043EAFE
:100728000603704794EA0C0F0CEA135518BF95EAB4
:100738000C0F0CD050EA410618BF52EA4306D1D13B
:1007480081EA030101F000414FF0000070BD50EA5A
:10075800410606BF1046194652EA430619D094EAE4
:100768000C0F02D150EA013613D195EA0C0F05D1CE
:1007780052EA03361CBF104619460AD181EA030122
:1007880001F0004141F0FE4141F470014FF00000DA
:1007980070BD41F0FE4141F4780170BD70B54FF075
:1007A800FF0C4CF4E06C1CEA11541DBF1CEA1355F5
:1007B80094EA0C0F95EA0C0F00F0A7F8A4EB0504D7
:1007C80081EA030E52EA03354FEA013100F08880CE
:1007D8004FEA03334FF0805545EA131343EA126397
:1007E8004FEA022245EA111545EA10654FEA00264C
:1007F8000EF000419D4208BF964244F1FD0404F505
:10080800407402D25B084FEA3202B61A65EB030560
:100818005B084FEA32024FF480104FF4002CB6EB1D
:10082800020E75EB030E22BFB61A754640EA0C009D
:100838005B084FEA3202B6EB020E75EB030E22BFDD
:10084800B61A754640EA5C005B084FEA3202B6EB1E
:10085800020E75EB030E22BFB61A754640EA9C00DD
:100868005B084FEA3202B6EB020E75EB030E22BFAD
:10087800B61A754640EADC0055EA060E18D04FEA6B
:10088800051545EA16754FEA06164FEAC30343EA0B
:1008980052734FEAC2025FEA1C1CC0D111F4801FD8
:1008A8000BD141EA00014FF000004FF0004CB6E7D1
:1008B80011F4801F04BF01430020B4F1FD0C88BF70
:1008C800BCF5E06F3FF6AFAEB5EB030C04BFB6EB7B
:1008D800020C5FEA500C50F1000041EB045170BD6E
:1008E8000EF0004E4EEA113114EB5C04C2BFD4EB9B
:1008F8000C0541EA045170BD41F480114FF0000E1F
:10090800013C90E645EA060E8DE60CEA135594EA9A
:100918000C0F08BF95EA0C0F3FF43BAF94EA0C0F9D
:100928000AD150EA01347FF434AF95EA0C0F7FF412
:1009380025AF104619462CE795EA0C0F06D152EA66
:1009480003353FF4FDAE1046194622E750EA41064A
:1009580018BF52EA43067FF4C5AE50EA41047FF45B
:100968000DAF52EA43057FF4EBAE12E74FF0FF3CC0
:1009780006E000BF4FF0010C02E000BF4FF0010C91
:100988004DF804CD4FEA410C7FEA6C5C4FEA430C0A
:1009980018BF7FEA6C5C1BD001B050EA410C0CBF59
:1009A80052EA430C91EA030F02BF90EA020F0020BB
:1009B800704710F1000F91EA030F58BF994208BF22
:1009C80090422CBFD8176FEAE37040F001007047DF
:1009D8004FEA410C7FEA6C5C02D150EA013C07D136
:1009E8004FEA430C7FEA6C5CD6D152EA033CD3D081
:1009F8005DF8040B704700BF8446104662468C467B
:100A08001946634600E000BF01B5FFF7B7FF0028AD
:100A180048BF10F1000F01BD4DF808EDFFF7F4FFD6
:100A28000CBF012000205DF808FB00BF4DF808ED61
:100A3800FFF7EAFF34BF012000205DF808FB00BF84
:100A48004DF808EDFFF7E0FF94BF012000205DF8A6
:100A580008FB00BF4DF808EDFFF7CEFF94BF01205B
:100A680000205DF808FB00BF4DF808EDFFF7C4FF54
:100A780034BF012000205DF808FB00BF4A0011D2F6
:100A880012F5001211D20DD56FF47873B3EB6252E0
:100A98000ED44FEAC12343F0004343EA505323FAEC
:100AA80002F070474FF00000704750EA013002D161
:100AB8004FF0FF3070474FF00000704790B583B09B
:100AC80000AF87ED000B3C4B93ED007B97ED001BCF
:100AD800B0EE470AF0EE670A00F076F8B0EE407A1A
:100AE800F0EE607A354B83ED007B344BD3E900019F
:100AF8004FF00002324BFFF727FD03460C4618461D
:100B080021464FF000022E4BFFF7AEFF0346002BA5
:100B180012D02A4A4FF00003294CC2E90034274B6F
:100B2800D3E9003418462146FFF7A8FF03469BB2D5
:100B3800184600F039FA3BE0204BD3E900014FF0AA
:100B480000021F4BFFF700FD03460C4618462146DE
:100B58004FF000024FF00003FFF768FF0346002B39
:100B680013D0164A4FF000034FF00004C2E90034D6
:100B7800124BD3E9003418462146FFF77FFF03469E
:100B88009BB2184600F010FA12E00C4BD3E90001B2
:100B98004FF000020A4BFFF7D7FC03460C461846F5
:100BA8002146FFF76BFF03469BB2184600F0FCF99D
:100BB80000BF0C37BD4690BD000000207004002027
:100BC8000040524000000000B0B586B000AF87ED8D
:100BD800020B87ED001B4FF000024FF00003D7E92E
:100BE8000001FFF719FF0346002B19D1D7E90023AD
:100BF800D7E90201FFF7F0FA03460C46224AC2E998
:100C08000034224BD3E900011F4BD3E900341A46C4
:100C18002346FFF7E3FA03460C461C4AC2E90034B0
:100C2800194BD3E9000114A3D3E90023FFF78CFC87
:100C380003460C4625461C46144BD3E9000110A375
:100C4800D3E90023FFF780FC02460B4620462946DD
:100C5800FFF7C4FA03460C46C7E90434D7E904345D
:100C680044EC173BB0EE470AF0EE670A1837BD466A
:100C7800B0BD00BFAFF30080000000A09999B93F54
:100C880000000040E17A843F6804002060040020EE
:100C980080B483B000AF0346FB71FB7903F01F02F9
:100CA800074997F907305B09012000FA02F241F879
:100CB800232000BF0C37BD465DF8047B704700BF9A
:100CC80000E100E080B400AF104B1B6C0F4A43F00A
:100CD800010313644FF0804340F23F621A854FF0DE
:100CE80080436422DA624FF0804300225A624FF058
:100CF80080431B889BB24FF0804243F001039BB2B4
:100D0800138000BFBD465DF8047B70470038024081
:100D180080B500AF4FF080439B899BB24FF0804273
:100D280043F001039BB293811C20FFF7B1FF00BF82
:100D380080BD80B500AF00F0C9FB00BF80BD0000DA
:100D480080B400AF424B1B6B414A43F0010313636D
:100D5800404B1B683F4A23F4806313603D4B1B687C
:100D68003C4A43F4006313603A4B1B68394A23F446
:100D780080531360374B1B68364A43F400531360A3
:100D8800344B1B68334A23F480431360314B1B6890
:100D9800304A43F4004313602E4B1B6A2D4A43F03C
:100DA800AA4343F4A0031362294B5B6C284A43F41B
:100DB80080535364284B1B889BB2274A43F0100387
:100DC8009BB21380244B1B889BB2234A23F0020357
:100DD8009BB21380204B1B889BB21F4A43F0010330
:100DE8009BB213801C4B1B889BB21B4A23F40063E5
:100DF8009BB21380184B1B889BB2174A23F08003C1
:100E08009BB21380144B1B889BB2134A43F4807324
:100E18009BB21380104B1B889BB20F4A43F400739C
:100E28009BB213800C4B1B889BB20B4A43F0040304
:100E38009BB21380084B1B889BB2074A43F04003C0
:100E48009BB2138000BFBD465DF8047B704700BFAE
:100E580000380240000002400030014080B483B0F6
:100E680000AF0346FB710F4B1B899BB203F00203D3
:100E7800002B10D00B4BFA7992B29A8100BF094B24
:100E88001B899BB203F08003002BF8D1054B9B898B
:100E98009BB2DBB200E0FF2318460C37BD465DF875
:100EA800047B70470030014080B500AF0023022268
:100EB80008213A4800F0FEF8394B5B6C384A43F099
:100EC80001035364354B5B6A344A43F001035362B0
:100ED800344B1B889BB2334A43F080039BB2138088
:100EE800304B1B889BB22F4A23F010039BB2138010
:100EF8002C4B43F67F621A852A4B4FF6FF72DA6253
:100F0800284B1B8B9BB2274A03F0FE039BB213832B
:100F1800244B1B8B9BB2234A43F008039BB21383D9
:100F2800204B1B8B9BB21F4A43F020039BB21383B9
:100F38001C4B1B8B9BB21B4A43F040039BB2138391
:100F4800184B1B8C9BB2174A23F002039BB21384E5
:100F5800144B9B8A9BB2134A43F001039BB29382C2
:100F6800104B1B8C9BB20F4A43F001039BB21384B6
:100F78000C4BB3F844309BB20A4A6FEA43436FEA1A
:100F880053439BB2A2F84430064B1B889BB2054AD8
:100F980043F001039BB2138000BF80BD00000240F4
:100FA800003802400000014080B485B000AF03461D
:100FB800FB80FA23FB810B4AFB89D362FB88FA8901
:100FC80002FB03F3084A82FB03125211DB17D31A00
:100FD800BB81044ABB89536300BF1437BD465DF823
:100FE800047B7047000001401F85EB5180B500AFBE
:100FF8000021802000F002F800BF80BD80B582B0DB
:1010080000AF03460A46FB711346BB71FB7963F0D8
:101018007F03DBB21846FFF721FFBB791846FFF7BD
:101028001DFF00BF0837BD4680BD80B582B000AF48
:1010380003463960FB71FB7903F07F03DBB2184686
:10104800FFF70CFF0020FFF709FF03461A463B682D
:101058001A7000BF0837BD4680BD000080B500AFDC
:10106800114B4FF000021A60012200210F4800F0D6
:10107800FAF90F490220FFF7D8FF002200210B4898
:1010880000F0F1F90A4B1B785BB207EE903AF8EEE4
:10109800E77A054BC3ED007A034B1B6807EE903ADD
:1010A800B0EE670A80BD00BF7C0400200004024047
:1010B8007804002080B582B000AF786008461146F9
:1010C8001A460346FB700B46BB7013467B707B6861
:1010D800604A934206D1604B1B6B5F4A43F00103A1
:1010E800136335E07B685D4A934206D15A4B1B6B0C
:1010F800594A43F0020313632AE07B68584A934233
:1011080006D1554B1B6B544A43F0040313631FE08D
:101118007B68544A934206D14F4B1B6B4E4A43F0AF
:101128000803136314E07B684F4A934206D14A4B85
:101138001B6B494A43F01003136309E07B684B4A71
:10114800934205D1444B1B6B434A43F0800313631E
:10115800BB78032B78D801A252F823F07511000848
:10116800B1110008EB110008251200087B681A6805
:10117800FB785B00012101FA03F3DB431A407B682B
:101188001A607B681A68FB785B000133012101FA59
:1011980003F3DB431A407B681A607A78FB781946B8
:1011A800786800F01AF950E07B681A68FB785B00F1
:1011B800012101FA03F31A437B681A607B681A68F5
:1011C800FB785B000133012101FA03F3DB431A408A
:1011D8007B681A607A78FB781946786800F0C2F85C
:1011E80033E07B681A68FB785B00012101FA03F39E
:1011F800DB431A407B681A607B681A68FB785B00DF
:101208000133012101FA03F31A437B681A607A78E3
:10121800FB781946786800F02BF816E07B681A68A6
:10122800FB785B00012101FA03F31A437B681A601B
:101238007B681A68FB785B000133012101FA03F32C
:101248001A437B681A6000E000BF00BF0837BD463C
:1012580080BD00BF00000240003802400004024088
:1012680000080240000C024000100240001C02402E
:1012780080B483B000AF78600B46FB701346BB7038
:10128800BB78032B66D801A252F823F0A5120008F8
:10129800D512000803130008311300087B68DA68C8
:1012A800FB785B00012101FA03F3DB431A407B68FA
:1012B800DA607B68DA68FB785B000133012101FAA8
:1012C80003F3DB431A407B68DA6044E07B68DA6842
:1012D800FB785B00012101FA03F31A437B68DA60AB
:1012E8007B68DA68FB785B000133012101FA03F3BC
:1012F800DB431A407B68DA602DE07B68DA68FB78AC
:101308005B00012101FA03F3DB431A407B68DA60D2
:101318007B68DA68FB785B000133012101FA03F38B
:101328001A437B68DA6016E07B68DA68FB785B0052
:10133800012101FA03F31A437B68DA607B68DA68F3
:10134800FB785B000133012101FA03F31A437B6840
:10135800DA6000E000BF00BF0C37BD465DF8047BD3
:10136800704700BF80B483B000AF78600B46FB7055
:101378001346BB707B681A68FB785B00012101FA91
:1013880003F31340002B21D07B681A68FB785B00BD
:101398000133012101FA03F31340002B16D1BB7866
:1013A800002B02D0BB78012B0ED17B685A68FB78E2
:1013B800012101FA03F3DB431340B978FA7801FA03
:1013C80002F21A437B685A60012300E000231846A2
:1013D8000C37BD465DF8047B704780B483B000AF1E
:1013E80078600B46FB701346BB707B681A68FB7805
:1013F8005B00012101FA03F31340002B2CD17B6819
:101408001A68FB785B000133012101FA03F31340EA
:10141800002B21D1BB78002B05D0BB78012B02D043
:10142800BB78022B16D17B68DA68FB785B00012158
:101438009940FB785B000133012000FA03F30B436A
:10144800DB431340B978FA78520001FA02F21A43E2
:101458007B68DA60012300E0002318460C37BD469C
:101468005DF8047B704780B483B000AF78600B46AA
:10147800FB701346BB707B681A68FB785B00012120
:1014880001FA03F31340002B18D0BB78002B09D0C6
:101498007B685A69FB78012101FA03F31A437B68D8
:1014A8005A6109E07B685A69FB78012101FA03F364
:1014B800DB431A407B685A61012300E00023184689
:1014C8000C37BD465DF8047B7047000090B583B0CB
:1014D80000AF154B1B68002B12D0144B1B68002B58
:1014E8000ED1FFF7BBFD10EE103A1846FEF7D4FFF9
:1014F80003460C46C7E9003497ED000BFFF7DEFA08
:101508000A4B1B680133094A1360084B1B68084AD9
:10151800126893FBF2F102FB01F29B1A034A136073
:1015280000BF0C37BD4690BD080000208004002095
:101538000C00002080B400AF034B01221A6000BFEA
:10154800BD465DF8047B70470800002080B483B076
:1015580000AF78607B68074A82FB03125211DB17E1
:10156800D31A054A136000BF0C37BD465DF8047BEB
:10157800704700BF1F85EB510C00002080B500AFFD
:101588000023012200211248FFF794FD00230122C5
:1015980000211048FFF78EFDFFF786FCFFF7D0FB10
:1015A800012200210B48FFF75EFFFFF71FFD002215
:1015B80000210848FFF757FFFFF784FBFFF7A8FB58
:1015C8004FF4FA70FFF7C2FFFFF7B4FFFEE700BF62
:1015D800000002400004024080B500AF4FF0804395
:1015E8001B8A9BB24FF0804223F001039BB2138207
:1015F800FFF79FFB00BF80BD80B500AF164BD3F847
:101608008830154A43F47003C2F88830134B1B68BE
:10161800124A43F001031360104B00229A600F4BEB
:101628001B680E4A23F0847323F4803313600B4B3A
:101638000B4A5A60094B1B68084A23F4802313603D
:10164800064B0022DA6000F00DF8034B4FF0006201
:101658009A6000BF80BD00BF00ED00E00038024086
:101668001030002480B483B000AF00237B600023D7
:101678003B60354B1B68344A43F480331360324B6C
:101688001B6803F400333B607B6801337B603B6875
:10169800002B03D17B68B3F5A04FF0D12A4B1B6810
:1016A80003F40033002B02D001233B6001E0002348
:1016B8003B603B68012B40D1234B1B6C224A43F013
:1016C80080531364214B1B68204A43F44043136042
:1016D8001D4B1D4A9B6893601B4B1B4A9B6893607C
:1016E800194B9B68184A43F480539360164B184A69
:1016F8005A60154B1B68144A43F08073136000BF8F
:10170800114B1B6803F00073002BF9D0114B40F20A
:1017180002721A600C4B9B680B4A23F00303936018
:10172800094B9B68084A43F00203936000BF064BCD
:101738009B6803F00C03082BF9D100BF0C37BD469A
:101748005DF8047B704700BF00380240007000401D
:1017580019544107003C02400D4885460D480E4982
:101768000E4A002302E0D458C4500433C4188C42F3
:10177800F9D30B4A0B4C002301E013600432A24258
:10178800FBD3FFF739FF00F011F8FFF7F7FEFEE78C
:1017980000000120000000203C040020401900083F
:1017A80040040020A8040020FEE7000070B50D4E9C
:1017B8000D4D761BB61006D00024013455F8043BB5
:1017C8009847A642F9D1094E094D761B00F0A0F8BA
:1017D800B61006D00024013455F8043B9847A642B9
:1017E800F9D170BD34190008341900083C190008F3
:1017F80034190008024B13B1024800F005B87047CD
:10180800000000001D180008002301461A4618466B
:1018180000F01EB838B50A4C0A4D641BA4100AD053
:1018280004F18043013B05EB8305013C55F804397D
:101838009847002CF9D1BDE8384000F06FB800BFD8
:10184800401900083C190008704700BF704700BFE6
:101858002DE9F8432B4D0646286898460F469146D1
:10186800FFF7F2FF284B1C68D4F84831002B3DD015
:101878005A681F2A0DDC02F1010C16BB0232C3F8AC
:1018880004C0286843F82270FFF7E0FF0020BDE895
:10189800F8831E4B7BB34FF4C870AFF30080034648
:1018A80048B3D4F848210021C0E900214FF0010CC9
:1018B800C4F848010A46C0F88811C0F88C11002EF7
:1018C800DCD003EB82010124C1F88890D3F88801A9
:1018D80094402043022EC3F88801C1F80881CDD175
:1018E800D3F88C110C43C3F88C41C7E704F5A673F1
:1018F800C4F84831BCE72868FFF7A8FF4FF0FF306D
:10190800C5E700BF380400203019000800000000B7
:10191800F8B500BFF8BC08BC9E467047F8B500BFD4
:08192800F8BC08BC9E467047A4
:041930001000002083
:08193400FD170008BD010008C9
:04193C009901000805
:101940000000000000003E40010000000100000017
:1019500000000000FC02002064030020CC030020F3
:101960000000000000000000000000000000000077
:101970000000000000000000000000000000000067
:101980000000000000000000000000000000000057
:101990000000000000000000000000000000000047
:1019A0000000000000000000000000000000000037
:1019B0000000000000000000000000000000000027
:1019C0000000000000000000000000000000000017
:1019D0000000000000000000000000000000000007
:1019E00000000000000000000000000000000000F7
:1019F00000000000000000000100000000000000E6
:101A00000E33CDAB34126DE6ECDE05000B000000AA
:101A100000000000000000000000000000000000C6
:101A200000000000000000000000000000000000B6
:101A300000000000000000000000000000000000A6
:101A40000000000000000000000000000000000096
:0C1D7000000000000000000084040020BF
:040000050800176177
:00000001FF
